{
  "contractName": "ERC1155Creator",
  "abi": [
    {
      "inputs": [],
      "stateMutability": "nonpayable",
      "type": "constructor"
    },
    {
      "anonymous": false,
      "inputs": [
        {
          "indexed": true,
          "internalType": "address",
          "name": "account",
          "type": "address"
        },
        {
          "indexed": true,
          "internalType": "address",
          "name": "operator",
          "type": "address"
        },
        {
          "indexed": false,
          "internalType": "bool",
          "name": "approved",
          "type": "bool"
        }
      ],
      "name": "ApprovalForAll",
      "type": "event"
    },
    {
      "anonymous": false,
      "inputs": [
        {
          "indexed": true,
          "internalType": "address",
          "name": "operator",
          "type": "address"
        },
        {
          "indexed": true,
          "internalType": "address",
          "name": "from",
          "type": "address"
        },
        {
          "indexed": true,
          "internalType": "address",
          "name": "to",
          "type": "address"
        },
        {
          "indexed": false,
          "internalType": "uint256[]",
          "name": "ids",
          "type": "uint256[]"
        },
        {
          "indexed": false,
          "internalType": "uint256[]",
          "name": "values",
          "type": "uint256[]"
        }
      ],
      "name": "TransferBatch",
      "type": "event"
    },
    {
      "anonymous": false,
      "inputs": [
        {
          "indexed": true,
          "internalType": "address",
          "name": "operator",
          "type": "address"
        },
        {
          "indexed": true,
          "internalType": "address",
          "name": "from",
          "type": "address"
        },
        {
          "indexed": true,
          "internalType": "address",
          "name": "to",
          "type": "address"
        },
        {
          "indexed": false,
          "internalType": "uint256",
          "name": "id",
          "type": "uint256"
        },
        {
          "indexed": false,
          "internalType": "uint256",
          "name": "value",
          "type": "uint256"
        }
      ],
      "name": "TransferSingle",
      "type": "event"
    },
    {
      "anonymous": false,
      "inputs": [
        {
          "indexed": false,
          "internalType": "string",
          "name": "value",
          "type": "string"
        },
        {
          "indexed": true,
          "internalType": "uint256",
          "name": "id",
          "type": "uint256"
        }
      ],
      "name": "URI",
      "type": "event"
    },
    {
      "inputs": [],
      "name": "IdCount",
      "outputs": [
        {
          "internalType": "uint256",
          "name": "",
          "type": "uint256"
        }
      ],
      "stateMutability": "view",
      "type": "function"
    },
    {
      "inputs": [
        {
          "internalType": "address",
          "name": "account",
          "type": "address"
        },
        {
          "internalType": "uint256",
          "name": "id",
          "type": "uint256"
        }
      ],
      "name": "balanceOf",
      "outputs": [
        {
          "internalType": "uint256",
          "name": "",
          "type": "uint256"
        }
      ],
      "stateMutability": "view",
      "type": "function"
    },
    {
      "inputs": [
        {
          "internalType": "address[]",
          "name": "accounts",
          "type": "address[]"
        },
        {
          "internalType": "uint256[]",
          "name": "ids",
          "type": "uint256[]"
        }
      ],
      "name": "balanceOfBatch",
      "outputs": [
        {
          "internalType": "uint256[]",
          "name": "",
          "type": "uint256[]"
        }
      ],
      "stateMutability": "view",
      "type": "function"
    },
    {
      "inputs": [],
      "name": "governance",
      "outputs": [
        {
          "internalType": "address",
          "name": "",
          "type": "address"
        }
      ],
      "stateMutability": "view",
      "type": "function"
    },
    {
      "inputs": [
        {
          "internalType": "address",
          "name": "account",
          "type": "address"
        },
        {
          "internalType": "address",
          "name": "operator",
          "type": "address"
        }
      ],
      "name": "isApprovedForAll",
      "outputs": [
        {
          "internalType": "bool",
          "name": "",
          "type": "bool"
        }
      ],
      "stateMutability": "view",
      "type": "function"
    },
    {
      "inputs": [
        {
          "internalType": "address",
          "name": "from",
          "type": "address"
        },
        {
          "internalType": "address",
          "name": "to",
          "type": "address"
        },
        {
          "internalType": "uint256[]",
          "name": "ids",
          "type": "uint256[]"
        },
        {
          "internalType": "uint256[]",
          "name": "amounts",
          "type": "uint256[]"
        },
        {
          "internalType": "bytes",
          "name": "data",
          "type": "bytes"
        }
      ],
      "name": "safeBatchTransferFrom",
      "outputs": [],
      "stateMutability": "nonpayable",
      "type": "function"
    },
    {
      "inputs": [
        {
          "internalType": "address",
          "name": "from",
          "type": "address"
        },
        {
          "internalType": "address",
          "name": "to",
          "type": "address"
        },
        {
          "internalType": "uint256",
          "name": "id",
          "type": "uint256"
        },
        {
          "internalType": "uint256",
          "name": "amount",
          "type": "uint256"
        },
        {
          "internalType": "bytes",
          "name": "data",
          "type": "bytes"
        }
      ],
      "name": "safeTransferFrom",
      "outputs": [],
      "stateMutability": "nonpayable",
      "type": "function"
    },
    {
      "inputs": [
        {
          "internalType": "address",
          "name": "operator",
          "type": "address"
        },
        {
          "internalType": "bool",
          "name": "approved",
          "type": "bool"
        }
      ],
      "name": "setApprovalForAll",
      "outputs": [],
      "stateMutability": "nonpayable",
      "type": "function"
    },
    {
      "inputs": [
        {
          "internalType": "bytes4",
          "name": "interfaceId",
          "type": "bytes4"
        }
      ],
      "name": "supportsInterface",
      "outputs": [
        {
          "internalType": "bool",
          "name": "",
          "type": "bool"
        }
      ],
      "stateMutability": "view",
      "type": "function"
    },
    {
      "inputs": [
        {
          "internalType": "uint256",
          "name": "",
          "type": "uint256"
        }
      ],
      "name": "uri",
      "outputs": [
        {
          "internalType": "string",
          "name": "",
          "type": "string"
        }
      ],
      "stateMutability": "view",
      "type": "function"
    },
    {
      "inputs": [
        {
          "internalType": "address",
          "name": "owner",
          "type": "address"
        },
        {
          "internalType": "uint256",
          "name": "id",
          "type": "uint256"
        },
        {
          "internalType": "bytes",
          "name": "data",
          "type": "bytes"
        }
      ],
      "name": "newToken",
      "outputs": [],
      "stateMutability": "nonpayable",
      "type": "function"
    },
    {
      "inputs": [
        {
          "internalType": "address",
          "name": "_ActualOwnerOfToken",
          "type": "address"
        },
        {
          "internalType": "address",
          "name": "_to",
          "type": "address"
        },
        {
          "internalType": "uint256",
          "name": "_IdOfToken",
          "type": "uint256"
        }
      ],
      "name": "SafeTransfer",
      "outputs": [],
      "stateMutability": "nonpayable",
      "type": "function"
    }
  ],
  "bytecode": "0x60806040523480156200001157600080fd5b506040518060200160405280600081525062000033816200008360201b60201c565b5033600360006101000a81548173ffffffffffffffffffffffffffffffffffffffff021916908373ffffffffffffffffffffffffffffffffffffffff1602179055506000600481905550620001b4565b80600290805190602001906200009b9291906200009f565b5050565b828054620000ad906200014f565b90600052602060002090601f016020900481019282620000d157600085556200011d565b82601f10620000ec57805160ff19168380011785556200011d565b828001600101855582156200011d579182015b828111156200011c578251825591602001919060010190620000ff565b5b5090506200012c919062000130565b5090565b5b808211156200014b57600081600090555060010162000131565b5090565b600060028204905060018216806200016857607f821691505b602082108114156200017f576200017e62000185565b5b50919050565b7f4e487b7100000000000000000000000000000000000000000000000000000000600052602260045260246000fd5b612cd780620001c46000396000f3fe608060405234801561001057600080fd5b50600436106100b35760003560e01c8063a22cb46511610071578063a22cb465146101b2578063d7d984ce146101ce578063e985e9c5146101ec578063f1e4d9241461021c578063f242432a14610238578063f7b3867414610254576100b3565b8062fdd58e146100b857806301ffc9a7146100e85780630e89341c146101185780632eb2c2d6146101485780634e1273f4146101645780635aa6e67514610194575b600080fd5b6100d260048036038101906100cd9190611cc7565b610270565b6040516100df91906127bb565b60405180910390f35b61010260048036038101906100fd9190611ddb565b610339565b60405161010f91906125de565b60405180910390f35b610132600480360381019061012d9190611e2d565b61041b565b60405161013f91906125f9565b60405180910390f35b610162600480360381019061015d9190611aee565b6104af565b005b61017e60048036038101906101799190611d6f565b6108a5565b60405161018b9190612585565b60405180910390f35b61019c610a56565b6040516101a991906124a8565b60405180910390f35b6101cc60048036038101906101c79190611c8b565b610a7c565b005b6101d6610bfd565b6040516101e391906127bb565b60405180910390f35b61020660048036038101906102019190611ab2565b610c03565b60405161021391906125de565b60405180910390f35b61023660048036038101906102319190611bad565b610c97565b005b610252600480360381019061024d9190611bfc565b610d3f565b005b61026e60048036038101906102699190611d03565b611057565b005b60008073ffffffffffffffffffffffffffffffffffffffff168373ffffffffffffffffffffffffffffffffffffffff1614156102e1576040517f08c379a00000000000000000000000000000000000000000000000000000000081526004016102d89061265b565b60405180910390fd5b60008083815260200190815260200160002060008473ffffffffffffffffffffffffffffffffffffffff1673ffffffffffffffffffffffffffffffffffffffff16815260200190815260200160002054905092915050565b60007fd9b67a26000000000000000000000000000000000000000000000000000000007bffffffffffffffffffffffffffffffffffffffffffffffffffffffff1916827bffffffffffffffffffffffffffffffffffffffffffffffffffffffff1916148061040457507f0e89341c000000000000000000000000000000000000000000000000000000007bffffffffffffffffffffffffffffffffffffffffffffffffffffffff1916827bffffffffffffffffffffffffffffffffffffffffffffffffffffffff1916145b806104145750610413826111e2565b5b9050919050565b60606002805461042a90612a69565b80601f016020809104026020016040519081016040528092919081815260200182805461045690612a69565b80156104a35780601f10610478576101008083540402835291602001916104a3565b820191906000526020600020905b81548152906001019060200180831161048657829003601f168201915b50505050509050919050565b81518351146104f3576040517f08c379a00000000000000000000000000000000000000000000000000000000081526004016104ea9061277b565b60405180910390fd5b600073ffffffffffffffffffffffffffffffffffffffff168473ffffffffffffffffffffffffffffffffffffffff161415610563576040517f08c379a000000000000000000000000000000000000000000000000000000000815260040161055a906126bb565b60405180910390fd5b61056b61124c565b73ffffffffffffffffffffffffffffffffffffffff168573ffffffffffffffffffffffffffffffffffffffff1614806105b157506105b0856105ab61124c565b610c03565b5b6105f0576040517f08c379a00000000000000000000000000000000000000000000000000000000081526004016105e7906126fb565b60405180910390fd5b60006105fa61124c565b905061060a818787878787611254565b60005b8451811015610810576000858281518110610651577f4e487b7100000000000000000000000000000000000000000000000000000000600052603260045260246000fd5b602002602001015190506000858381518110610696577f4e487b7100000000000000000000000000000000000000000000000000000000600052603260045260246000fd5b60200260200101519050600080600084815260200190815260200160002060008b73ffffffffffffffffffffffffffffffffffffffff1673ffffffffffffffffffffffffffffffffffffffff16815260200190815260200160002054905081811015610737576040517f08c379a000000000000000000000000000000000000000000000000000000000815260040161072e9061271b565b60405180910390fd5b8181610743919061297f565b60008085815260200190815260200160002060008c73ffffffffffffffffffffffffffffffffffffffff1673ffffffffffffffffffffffffffffffffffffffff168152602001908152602001600020819055508160008085815260200190815260200160002060008b73ffffffffffffffffffffffffffffffffffffffff1673ffffffffffffffffffffffffffffffffffffffff16815260200190815260200160002060008282546107f59190612929565b925050819055505050508061080990612a9b565b905061060d565b508473ffffffffffffffffffffffffffffffffffffffff168673ffffffffffffffffffffffffffffffffffffffff168273ffffffffffffffffffffffffffffffffffffffff167f4a39dc06d4c0dbc64b70af90fd698a233a518aa5d07e595d983b8c0526c8f7fb87876040516108879291906125a7565b60405180910390a461089d81878787878761125c565b505050505050565b606081518351146108eb576040517f08c379a00000000000000000000000000000000000000000000000000000000081526004016108e29061275b565b60405180910390fd5b6000835167ffffffffffffffff81111561092e577f4e487b7100000000000000000000000000000000000000000000000000000000600052604160045260246000fd5b60405190808252806020026020018201604052801561095c5781602001602082028036833780820191505090505b50905060005b8451811015610a4b576109f58582815181106109a7577f4e487b7100000000000000000000000000000000000000000000000000000000600052603260045260246000fd5b60200260200101518583815181106109e8577f4e487b7100000000000000000000000000000000000000000000000000000000600052603260045260246000fd5b6020026020010151610270565b828281518110610a2e577f4e487b7100000000000000000000000000000000000000000000000000000000600052603260045260246000fd5b60200260200101818152505080610a4490612a9b565b9050610962565b508091505092915050565b600360009054906101000a900473ffffffffffffffffffffffffffffffffffffffff1681565b8173ffffffffffffffffffffffffffffffffffffffff16610a9b61124c565b73ffffffffffffffffffffffffffffffffffffffff161415610af2576040517f08c379a0000000000000000000000000000000000000000000000000000000008152600401610ae99061273b565b60405180910390fd5b8060016000610aff61124c565b73ffffffffffffffffffffffffffffffffffffffff1673ffffffffffffffffffffffffffffffffffffffff16815260200190815260200160002060008473ffffffffffffffffffffffffffffffffffffffff1673ffffffffffffffffffffffffffffffffffffffff16815260200190815260200160002060006101000a81548160ff0219169083151502179055508173ffffffffffffffffffffffffffffffffffffffff16610bac61124c565b73ffffffffffffffffffffffffffffffffffffffff167f17307eab39ab6107e8899845ad3d59bd9653f200f220920489ca2b5937696c3183604051610bf191906125de565b60405180910390a35050565b60045481565b6000600160008473ffffffffffffffffffffffffffffffffffffffff1673ffffffffffffffffffffffffffffffffffffffff16815260200190815260200160002060008373ffffffffffffffffffffffffffffffffffffffff1673ffffffffffffffffffffffffffffffffffffffff16815260200190815260200160002060009054906101000a900460ff16905092915050565b600073ffffffffffffffffffffffffffffffffffffffff168273ffffffffffffffffffffffffffffffffffffffff161415610d07576040517f08c379a0000000000000000000000000000000000000000000000000000000008152600401610cfe906126db565b60405180910390fd5b6001610d138483610270565b14610d1d57600080fd5b610d3a838383600160405180602001604052806000815250610d3f565b505050565b600073ffffffffffffffffffffffffffffffffffffffff168473ffffffffffffffffffffffffffffffffffffffff161415610daf576040517f08c379a0000000000000000000000000000000000000000000000000000000008152600401610da6906126bb565b60405180910390fd5b610db761124c565b73ffffffffffffffffffffffffffffffffffffffff168573ffffffffffffffffffffffffffffffffffffffff161480610dfd5750610dfc85610df761124c565b610c03565b5b610e3c576040517f08c379a0000000000000000000000000000000000000000000000000000000008152600401610e339061267b565b60405180910390fd5b6000610e4661124c565b9050610e66818787610e578861142c565b610e608861142c565b87611254565b600080600086815260200190815260200160002060008873ffffffffffffffffffffffffffffffffffffffff1673ffffffffffffffffffffffffffffffffffffffff16815260200190815260200160002054905083811015610efd576040517f08c379a0000000000000000000000000000000000000000000000000000000008152600401610ef49061271b565b60405180910390fd5b8381610f09919061297f565b60008087815260200190815260200160002060008973ffffffffffffffffffffffffffffffffffffffff1673ffffffffffffffffffffffffffffffffffffffff168152602001908152602001600020819055508360008087815260200190815260200160002060008873ffffffffffffffffffffffffffffffffffffffff1673ffffffffffffffffffffffffffffffffffffffff1681526020019081526020016000206000828254610fbb9190612929565b925050819055508573ffffffffffffffffffffffffffffffffffffffff168773ffffffffffffffffffffffffffffffffffffffff168373ffffffffffffffffffffffffffffffffffffffff167fc3d58168c5ae7397731d063d5bbf3d657854427343f4c083240f7aacaa2d0f6288886040516110389291906127d6565b60405180910390a461104e8288888888886114f2565b50505050505050565b600360009054906101000a900473ffffffffffffffffffffffffffffffffffffffff1673ffffffffffffffffffffffffffffffffffffffff163373ffffffffffffffffffffffffffffffffffffffff16146110e7576040517f08c379a00000000000000000000000000000000000000000000000000000000081526004016110de9061269b565b60405180910390fd5b600460008154809291906110fa90612a9b565b9190505550600073ffffffffffffffffffffffffffffffffffffffff168473ffffffffffffffffffffffffffffffffffffffff16141561118a576111853384600185858080601f016020809104026020016040519081016040528093929190818152602001838380828437600081840152601f19601f820116905080830192505050505050506116c2565b6111dc565b6111db8484600185858080601f016020809104026020016040519081016040528093929190818152602001838380828437600081840152601f19601f820116905080830192505050505050506116c2565b5b50505050565b60007f01ffc9a7000000000000000000000000000000000000000000000000000000007bffffffffffffffffffffffffffffffffffffffffffffffffffffffff1916827bffffffffffffffffffffffffffffffffffffffffffffffffffffffff1916149050919050565b600033905090565b505050505050565b61127b8473ffffffffffffffffffffffffffffffffffffffff16611858565b15611424578373ffffffffffffffffffffffffffffffffffffffff1663bc197c8187878686866040518663ffffffff1660e01b81526004016112c19594939291906124c3565b602060405180830381600087803b1580156112db57600080fd5b505af192505050801561130c57506040513d601f19601f820116820180604052508101906113099190611e04565b60015b61139b57611318612b8f565b806113235750611360565b806040517f08c379a000000000000000000000000000000000000000000000000000000000815260040161135791906125f9565b60405180910390fd5b6040517f08c379a00000000000000000000000000000000000000000000000000000000081526004016113929061261b565b60405180910390fd5b63bc197c8160e01b7bffffffffffffffffffffffffffffffffffffffffffffffffffffffff1916817bffffffffffffffffffffffffffffffffffffffffffffffffffffffff191614611422576040517f08c379a00000000000000000000000000000000000000000000000000000000081526004016114199061263b565b60405180910390fd5b505b505050505050565b60606000600167ffffffffffffffff811115611471577f4e487b7100000000000000000000000000000000000000000000000000000000600052604160045260246000fd5b60405190808252806020026020018201604052801561149f5781602001602082028036833780820191505090505b50905082816000815181106114dd577f4e487b7100000000000000000000000000000000000000000000000000000000600052603260045260246000fd5b60200260200101818152505080915050919050565b6115118473ffffffffffffffffffffffffffffffffffffffff16611858565b156116ba578373ffffffffffffffffffffffffffffffffffffffff1663f23a6e6187878686866040518663ffffffff1660e01b815260040161155795949392919061252b565b602060405180830381600087803b15801561157157600080fd5b505af19250505080156115a257506040513d601f19601f8201168201806040525081019061159f9190611e04565b60015b611631576115ae612b8f565b806115b957506115f6565b806040517f08c379a00000000000000000000000000000000000000000000000000000000081526004016115ed91906125f9565b60405180910390fd5b6040517f08c379a00000000000000000000000000000000000000000000000000000000081526004016116289061261b565b60405180910390fd5b63f23a6e6160e01b7bffffffffffffffffffffffffffffffffffffffffffffffffffffffff1916817bffffffffffffffffffffffffffffffffffffffffffffffffffffffff1916146116b8576040517f08c379a00000000000000000000000000000000000000000000000000000000081526004016116af9061263b565b60405180910390fd5b505b505050505050565b600073ffffffffffffffffffffffffffffffffffffffff168473ffffffffffffffffffffffffffffffffffffffff161415611732576040517f08c379a00000000000000000000000000000000000000000000000000000000081526004016117299061279b565b60405180910390fd5b600061173c61124c565b905061175d8160008761174e8861142c565b6117578861142c565b87611254565b8260008086815260200190815260200160002060008773ffffffffffffffffffffffffffffffffffffffff1673ffffffffffffffffffffffffffffffffffffffff16815260200190815260200160002060008282546117bc9190612929565b925050819055508473ffffffffffffffffffffffffffffffffffffffff16600073ffffffffffffffffffffffffffffffffffffffff168273ffffffffffffffffffffffffffffffffffffffff167fc3d58168c5ae7397731d063d5bbf3d657854427343f4c083240f7aacaa2d0f62878760405161183a9291906127d6565b60405180910390a4611851816000878787876114f2565b5050505050565b600080823b905060008111915050919050565b600061187e61187984612830565b6127ff565b9050808382526020820190508285602086028201111561189d57600080fd5b60005b858110156118cd57816118b38882611981565b8452602084019350602083019250506001810190506118a0565b5050509392505050565b60006118ea6118e58461285c565b6127ff565b9050808382526020820190508285602086028201111561190957600080fd5b60005b85811015611939578161191f8882611a9d565b84526020840193506020830192505060018101905061190c565b5050509392505050565b600061195661195184612888565b6127ff565b90508281526020810184848401111561196e57600080fd5b611979848285612a27565b509392505050565b60008135905061199081612c45565b92915050565b600082601f8301126119a757600080fd5b81356119b784826020860161186b565b91505092915050565b600082601f8301126119d157600080fd5b81356119e18482602086016118d7565b91505092915050565b6000813590506119f981612c5c565b92915050565b600081359050611a0e81612c73565b92915050565b600081519050611a2381612c73565b92915050565b60008083601f840112611a3b57600080fd5b8235905067ffffffffffffffff811115611a5457600080fd5b602083019150836001820283011115611a6c57600080fd5b9250929050565b600082601f830112611a8457600080fd5b8135611a94848260208601611943565b91505092915050565b600081359050611aac81612c8a565b92915050565b60008060408385031215611ac557600080fd5b6000611ad385828601611981565b9250506020611ae485828601611981565b9150509250929050565b600080600080600060a08688031215611b0657600080fd5b6000611b1488828901611981565b9550506020611b2588828901611981565b945050604086013567ffffffffffffffff811115611b4257600080fd5b611b4e888289016119c0565b935050606086013567ffffffffffffffff811115611b6b57600080fd5b611b77888289016119c0565b925050608086013567ffffffffffffffff811115611b9457600080fd5b611ba088828901611a73565b9150509295509295909350565b600080600060608486031215611bc257600080fd5b6000611bd086828701611981565b9350506020611be186828701611981565b9250506040611bf286828701611a9d565b9150509250925092565b600080600080600060a08688031215611c1457600080fd5b6000611c2288828901611981565b9550506020611c3388828901611981565b9450506040611c4488828901611a9d565b9350506060611c5588828901611a9d565b925050608086013567ffffffffffffffff811115611c7257600080fd5b611c7e88828901611a73565b9150509295509295909350565b60008060408385031215611c9e57600080fd5b6000611cac85828601611981565b9250506020611cbd858286016119ea565b9150509250929050565b60008060408385031215611cda57600080fd5b6000611ce885828601611981565b9250506020611cf985828601611a9d565b9150509250929050565b60008060008060608587031215611d1957600080fd5b6000611d2787828801611981565b9450506020611d3887828801611a9d565b935050604085013567ffffffffffffffff811115611d5557600080fd5b611d6187828801611a29565b925092505092959194509250565b60008060408385031215611d8257600080fd5b600083013567ffffffffffffffff811115611d9c57600080fd5b611da885828601611996565b925050602083013567ffffffffffffffff811115611dc557600080fd5b611dd1858286016119c0565b9150509250929050565b600060208284031215611ded57600080fd5b6000611dfb848285016119ff565b91505092915050565b600060208284031215611e1657600080fd5b6000611e2484828501611a14565b91505092915050565b600060208284031215611e3f57600080fd5b6000611e4d84828501611a9d565b91505092915050565b6000611e62838361248a565b60208301905092915050565b611e77816129b3565b82525050565b6000611e88826128c8565b611e9281856128f6565b9350611e9d836128b8565b8060005b83811015611ece578151611eb58882611e56565b9750611ec0836128e9565b925050600181019050611ea1565b5085935050505092915050565b611ee4816129c5565b82525050565b6000611ef5826128d3565b611eff8185612907565b9350611f0f818560208601612a36565b611f1881612b71565b840191505092915050565b6000611f2e826128de565b611f388185612918565b9350611f48818560208601612a36565b611f5181612b71565b840191505092915050565b6000611f69603483612918565b91507f455243313135353a207472616e7366657220746f206e6f6e204552433131353560008301527f526563656976657220696d706c656d656e7465720000000000000000000000006020830152604082019050919050565b6000611fcf602883612918565b91507f455243313135353a204552433131353552656365697665722072656a6563746560008301527f6420746f6b656e730000000000000000000000000000000000000000000000006020830152604082019050919050565b6000612035602b83612918565b91507f455243313135353a2062616c616e636520717565727920666f7220746865207a60008301527f65726f20616464726573730000000000000000000000000000000000000000006020830152604082019050919050565b600061209b602983612918565b91507f455243313135353a2063616c6c6572206973206e6f74206f776e6572206e6f7260008301527f20617070726f76656400000000000000000000000000000000000000000000006020830152604082019050919050565b6000612101603283612918565b91507f4f6e6c7920746865206f776e6572206f66207468697320636f6e74726163742060008301527f63616e2063726561746520646f207468617400000000000000000000000000006020830152604082019050919050565b6000612167602583612918565b91507f455243313135353a207472616e7366657220746f20746865207a65726f20616460008301527f64726573730000000000000000000000000000000000000000000000000000006020830152604082019050919050565b60006121cd603183612918565b91507f596f752063616e2774207472616e7366657220796f757220746f6b656e20746f60008301527f20746865207a65726f20616464726573730000000000000000000000000000006020830152604082019050919050565b6000612233603283612918565b91507f455243313135353a207472616e736665722063616c6c6572206973206e6f742060008301527f6f776e6572206e6f7220617070726f76656400000000000000000000000000006020830152604082019050919050565b6000612299602a83612918565b91507f455243313135353a20696e73756666696369656e742062616c616e636520666f60008301527f72207472616e73666572000000000000000000000000000000000000000000006020830152604082019050919050565b60006122ff602983612918565b91507f455243313135353a2073657474696e6720617070726f76616c2073746174757360008301527f20666f722073656c6600000000000000000000000000000000000000000000006020830152604082019050919050565b6000612365602983612918565b91507f455243313135353a206163636f756e747320616e6420696473206c656e67746860008301527f206d69736d6174636800000000000000000000000000000000000000000000006020830152604082019050919050565b60006123cb602883612918565b91507f455243313135353a2069647320616e6420616d6f756e7473206c656e6774682060008301527f6d69736d617463680000000000000000000000000000000000000000000000006020830152604082019050919050565b6000612431602183612918565b91507f455243313135353a206d696e7420746f20746865207a65726f2061646472657360008301527f73000000000000000000000000000000000000000000000000000000000000006020830152604082019050919050565b61249381612a1d565b82525050565b6124a281612a1d565b82525050565b60006020820190506124bd6000830184611e6e565b92915050565b600060a0820190506124d86000830188611e6e565b6124e56020830187611e6e565b81810360408301526124f78186611e7d565b9050818103606083015261250b8185611e7d565b9050818103608083015261251f8184611eea565b90509695505050505050565b600060a0820190506125406000830188611e6e565b61254d6020830187611e6e565b61255a6040830186612499565b6125676060830185612499565b81810360808301526125798184611eea565b90509695505050505050565b6000602082019050818103600083015261259f8184611e7d565b905092915050565b600060408201905081810360008301526125c18185611e7d565b905081810360208301526125d58184611e7d565b90509392505050565b60006020820190506125f36000830184611edb565b92915050565b600060208201905081810360008301526126138184611f23565b905092915050565b6000602082019050818103600083015261263481611f5c565b9050919050565b6000602082019050818103600083015261265481611fc2565b9050919050565b6000602082019050818103600083015261267481612028565b9050919050565b600060208201905081810360008301526126948161208e565b9050919050565b600060208201905081810360008301526126b4816120f4565b9050919050565b600060208201905081810360008301526126d48161215a565b9050919050565b600060208201905081810360008301526126f4816121c0565b9050919050565b6000602082019050818103600083015261271481612226565b9050919050565b600060208201905081810360008301526127348161228c565b9050919050565b60006020820190508181036000830152612754816122f2565b9050919050565b6000602082019050818103600083015261277481612358565b9050919050565b60006020820190508181036000830152612794816123be565b9050919050565b600060208201905081810360008301526127b481612424565b9050919050565b60006020820190506127d06000830184612499565b92915050565b60006040820190506127eb6000830185612499565b6127f86020830184612499565b9392505050565b6000604051905081810181811067ffffffffffffffff8211171561282657612825612b42565b5b8060405250919050565b600067ffffffffffffffff82111561284b5761284a612b42565b5b602082029050602081019050919050565b600067ffffffffffffffff82111561287757612876612b42565b5b602082029050602081019050919050565b600067ffffffffffffffff8211156128a3576128a2612b42565b5b601f19601f8301169050602081019050919050565b6000819050602082019050919050565b600081519050919050565b600081519050919050565b600081519050919050565b6000602082019050919050565b600082825260208201905092915050565b600082825260208201905092915050565b600082825260208201905092915050565b600061293482612a1d565b915061293f83612a1d565b9250827fffffffffffffffffffffffffffffffffffffffffffffffffffffffffffffffff0382111561297457612973612ae4565b5b828201905092915050565b600061298a82612a1d565b915061299583612a1d565b9250828210156129a8576129a7612ae4565b5b828203905092915050565b60006129be826129fd565b9050919050565b60008115159050919050565b60007fffffffff0000000000000000000000000000000000000000000000000000000082169050919050565b600073ffffffffffffffffffffffffffffffffffffffff82169050919050565b6000819050919050565b82818337600083830152505050565b60005b83811015612a54578082015181840152602081019050612a39565b83811115612a63576000848401525b50505050565b60006002820490506001821680612a8157607f821691505b60208210811415612a9557612a94612b13565b5b50919050565b6000612aa682612a1d565b91507fffffffffffffffffffffffffffffffffffffffffffffffffffffffffffffffff821415612ad957612ad8612ae4565b5b600182019050919050565b7f4e487b7100000000000000000000000000000000000000000000000000000000600052601160045260246000fd5b7f4e487b7100000000000000000000000000000000000000000000000000000000600052602260045260246000fd5b7f4e487b7100000000000000000000000000000000000000000000000000000000600052604160045260246000fd5b6000601f19601f8301169050919050565b60008160e01c9050919050565b600060443d1015612b9f57612c42565b60046000803e612bb0600051612b82565b6308c379a08114612bc15750612c42565b60405160043d036004823e80513d602482011167ffffffffffffffff82111715612bed57505050612c42565b808201805167ffffffffffffffff811115612c0c575050505050612c42565b8060208301013d8501811115612c2757505050505050612c42565b612c3082612b71565b60208401016040528296505050505050505b90565b612c4e816129b3565b8114612c5957600080fd5b50565b612c65816129c5565b8114612c7057600080fd5b50565b612c7c816129d1565b8114612c8757600080fd5b50565b612c9381612a1d565b8114612c9e57600080fd5b5056fea2646970667358221220264262ba72ed660c178b91bda1d033efc1fb7eddc6abc6b02d7ed9da3369f3e464736f6c63430008000033",
  "immutableReferences": {},
  "source": "pragma solidity ^0.8.0;\r\n\r\nimport \"@openzeppelin/contracts/token/ERC1155/ERC1155.sol\";\r\n\r\n\r\ncontract ERC1155Creator is ERC1155{\r\n    address public governance;\r\n    uint256 public IdCount;\r\n    modifier onlyGovernance(){\r\n        require(msg.sender == governance, \"Only the owner of this contract can create do that\");\r\n        _;\r\n    }\r\n\r\n    constructor() public ERC1155(\"\"){\r\n        governance = msg.sender;\r\n        IdCount = 0;\r\n    }\r\n\r\n\r\n\r\n    function newToken(address owner, uint256 id, bytes calldata data)external onlyGovernance{\r\n        IdCount++;\r\n\r\n\r\n\r\n        if(owner == address(0)){  //test if owner is empty; give the ownership to  the governance\r\n            _mint(msg.sender, id, 1, data);\r\n        }\r\n        else{\r\n            _mint(owner, id, 1, data);\r\n        }\r\n    }\r\n\r\n    //Rajouter l'apporbation du owner du contract setApprovalForAll\r\n\r\n    function SafeTransfer(address _ActualOwnerOfToken, address _to, uint256 _IdOfToken) public{\r\n\r\n        require(_to !=address(0), \"You can't transfer your token to the zero address\");\r\n\r\n\r\n        require(\r\n            balanceOf(_ActualOwnerOfToken, _IdOfToken) == 1\r\n        );\r\n\r\n        safeTransferFrom(_ActualOwnerOfToken, _to, _IdOfToken, 1, \"\");\r\n    }\r\n\r\n}\r\n",
  "sourcePath": "C:/Users/FourbeurFourmi/Desktop/blockchain/erc1155-final/contracts/Kyra.sol",
  "compiler": {
    "name": "solc",
    "version": "0.8.0+commit.c7dfd78e.Emscripten.clang"
  },
  "schemaVersion": "3.3.4",
  "updatedAt": "2021-03-28T14:45:48.973Z",
  "devdoc": {
    "kind": "dev",
    "methods": {
      "balanceOf(address,uint256)": {
        "details": "See {IERC1155-balanceOf}. Requirements: - `account` cannot be the zero address."
      },
      "balanceOfBatch(address[],uint256[])": {
        "details": "See {IERC1155-balanceOfBatch}. Requirements: - `accounts` and `ids` must have the same length."
      },
      "isApprovedForAll(address,address)": {
        "details": "See {IERC1155-isApprovedForAll}."
      },
      "safeBatchTransferFrom(address,address,uint256[],uint256[],bytes)": {
        "details": "See {IERC1155-safeBatchTransferFrom}."
      },
      "safeTransferFrom(address,address,uint256,uint256,bytes)": {
        "details": "See {IERC1155-safeTransferFrom}."
      },
      "setApprovalForAll(address,bool)": {
        "details": "See {IERC1155-setApprovalForAll}."
      },
      "supportsInterface(bytes4)": {
        "details": "See {IERC165-supportsInterface}."
      },
      "uri(uint256)": {
        "details": "See {IERC1155MetadataURI-uri}. This implementation returns the same URI for *all* token types. It relies on the token type ID substitution mechanism https://eips.ethereum.org/EIPS/eip-1155#metadata[defined in the EIP]. Clients calling this function must replace the `\\{id\\}` substring with the actual token type ID."
      }
    },
    "version": 1
  },
  "userdoc": {
    "kind": "user",
    "methods": {},
    "version": 1
  }
}