{
  "contractName": "Kyra",
  "abi": [
    {
      "inputs": [],
      "stateMutability": "nonpayable",
      "type": "constructor"
    },
    {
      "anonymous": false,
      "inputs": [
        {
          "indexed": true,
          "internalType": "address",
          "name": "account",
          "type": "address"
        },
        {
          "indexed": true,
          "internalType": "address",
          "name": "operator",
          "type": "address"
        },
        {
          "indexed": false,
          "internalType": "bool",
          "name": "approved",
          "type": "bool"
        }
      ],
      "name": "ApprovalForAll",
      "type": "event"
    },
    {
      "anonymous": false,
      "inputs": [
        {
          "indexed": true,
          "internalType": "address",
          "name": "operator",
          "type": "address"
        },
        {
          "indexed": true,
          "internalType": "address",
          "name": "from",
          "type": "address"
        },
        {
          "indexed": true,
          "internalType": "address",
          "name": "to",
          "type": "address"
        },
        {
          "indexed": false,
          "internalType": "uint256[]",
          "name": "ids",
          "type": "uint256[]"
        },
        {
          "indexed": false,
          "internalType": "uint256[]",
          "name": "values",
          "type": "uint256[]"
        }
      ],
      "name": "TransferBatch",
      "type": "event"
    },
    {
      "anonymous": false,
      "inputs": [
        {
          "indexed": true,
          "internalType": "address",
          "name": "operator",
          "type": "address"
        },
        {
          "indexed": true,
          "internalType": "address",
          "name": "from",
          "type": "address"
        },
        {
          "indexed": true,
          "internalType": "address",
          "name": "to",
          "type": "address"
        },
        {
          "indexed": false,
          "internalType": "uint256",
          "name": "id",
          "type": "uint256"
        },
        {
          "indexed": false,
          "internalType": "uint256",
          "name": "value",
          "type": "uint256"
        }
      ],
      "name": "TransferSingle",
      "type": "event"
    },
    {
      "anonymous": false,
      "inputs": [
        {
          "indexed": false,
          "internalType": "string",
          "name": "value",
          "type": "string"
        },
        {
          "indexed": true,
          "internalType": "uint256",
          "name": "id",
          "type": "uint256"
        }
      ],
      "name": "URI",
      "type": "event"
    },
    {
      "inputs": [],
      "name": "IdCount",
      "outputs": [
        {
          "internalType": "uint256",
          "name": "",
          "type": "uint256"
        }
      ],
      "stateMutability": "view",
      "type": "function",
      "constant": true
    },
    {
      "inputs": [
        {
          "internalType": "address",
          "name": "account",
          "type": "address"
        },
        {
          "internalType": "uint256",
          "name": "id",
          "type": "uint256"
        }
      ],
      "name": "balanceOf",
      "outputs": [
        {
          "internalType": "uint256",
          "name": "",
          "type": "uint256"
        }
      ],
      "stateMutability": "view",
      "type": "function",
      "constant": true
    },
    {
      "inputs": [
        {
          "internalType": "address[]",
          "name": "accounts",
          "type": "address[]"
        },
        {
          "internalType": "uint256[]",
          "name": "ids",
          "type": "uint256[]"
        }
      ],
      "name": "balanceOfBatch",
      "outputs": [
        {
          "internalType": "uint256[]",
          "name": "",
          "type": "uint256[]"
        }
      ],
      "stateMutability": "view",
      "type": "function",
      "constant": true
    },
    {
      "inputs": [],
      "name": "governance",
      "outputs": [
        {
          "internalType": "address",
          "name": "",
          "type": "address"
        }
      ],
      "stateMutability": "view",
      "type": "function",
      "constant": true
    },
    {
      "inputs": [
        {
          "internalType": "address",
          "name": "account",
          "type": "address"
        },
        {
          "internalType": "address",
          "name": "operator",
          "type": "address"
        }
      ],
      "name": "isApprovedForAll",
      "outputs": [
        {
          "internalType": "bool",
          "name": "",
          "type": "bool"
        }
      ],
      "stateMutability": "view",
      "type": "function",
      "constant": true
    },
    {
      "inputs": [
        {
          "internalType": "address",
          "name": "from",
          "type": "address"
        },
        {
          "internalType": "address",
          "name": "to",
          "type": "address"
        },
        {
          "internalType": "uint256[]",
          "name": "ids",
          "type": "uint256[]"
        },
        {
          "internalType": "uint256[]",
          "name": "amounts",
          "type": "uint256[]"
        },
        {
          "internalType": "bytes",
          "name": "data",
          "type": "bytes"
        }
      ],
      "name": "safeBatchTransferFrom",
      "outputs": [],
      "stateMutability": "nonpayable",
      "type": "function"
    },
    {
      "inputs": [
        {
          "internalType": "address",
          "name": "from",
          "type": "address"
        },
        {
          "internalType": "address",
          "name": "to",
          "type": "address"
        },
        {
          "internalType": "uint256",
          "name": "id",
          "type": "uint256"
        },
        {
          "internalType": "uint256",
          "name": "amount",
          "type": "uint256"
        },
        {
          "internalType": "bytes",
          "name": "data",
          "type": "bytes"
        }
      ],
      "name": "safeTransferFrom",
      "outputs": [],
      "stateMutability": "nonpayable",
      "type": "function"
    },
    {
      "inputs": [
        {
          "internalType": "address",
          "name": "operator",
          "type": "address"
        },
        {
          "internalType": "bool",
          "name": "approved",
          "type": "bool"
        }
      ],
      "name": "setApprovalForAll",
      "outputs": [],
      "stateMutability": "nonpayable",
      "type": "function"
    },
    {
      "inputs": [
        {
          "internalType": "bytes4",
          "name": "interfaceId",
          "type": "bytes4"
        }
      ],
      "name": "supportsInterface",
      "outputs": [
        {
          "internalType": "bool",
          "name": "",
          "type": "bool"
        }
      ],
      "stateMutability": "view",
      "type": "function",
      "constant": true
    },
    {
      "inputs": [
        {
          "internalType": "uint256",
          "name": "",
          "type": "uint256"
        }
      ],
      "name": "uri",
      "outputs": [
        {
          "internalType": "string",
          "name": "",
          "type": "string"
        }
      ],
      "stateMutability": "view",
      "type": "function",
      "constant": true
    },
    {
      "inputs": [
        {
          "internalType": "address",
          "name": "owner",
          "type": "address"
        },
        {
          "internalType": "uint256",
          "name": "id",
          "type": "uint256"
        },
        {
          "internalType": "bytes",
          "name": "data",
          "type": "bytes"
        }
      ],
      "name": "newToken",
      "outputs": [],
      "stateMutability": "nonpayable",
      "type": "function"
    },
    {
      "inputs": [
        {
          "internalType": "address",
          "name": "_ActualOwnerOfToken",
          "type": "address"
        },
        {
          "internalType": "address",
          "name": "_to",
          "type": "address"
        },
        {
          "internalType": "uint256",
          "name": "_IdOfToken",
          "type": "uint256"
        }
      ],
      "name": "SafeTransfer",
      "outputs": [],
      "stateMutability": "nonpayable",
      "type": "function"
    }
  ],
  "bytecode": "0x60806040523480156200001157600080fd5b506040518060200160405280600081525062000033816200008360201b60201c565b5033600360006101000a81548173ffffffffffffffffffffffffffffffffffffffff021916908373ffffffffffffffffffffffffffffffffffffffff1602179055506000600481905550620001b4565b80600290805190602001906200009b9291906200009f565b5050565b828054620000ad906200014f565b90600052602060002090601f016020900481019282620000d157600085556200011d565b82601f10620000ec57805160ff19168380011785556200011d565b828001600101855582156200011d579182015b828111156200011c578251825591602001919060010190620000ff565b5b5090506200012c919062000130565b5090565b5b808211156200014b57600081600090555060010162000131565b5090565b600060028204905060018216806200016857607f821691505b602082108114156200017f576200017e62000185565b5b50919050565b7f4e487b7100000000000000000000000000000000000000000000000000000000600052602260045260246000fd5b612c9980620001c46000396000f3fe608060405234801561001057600080fd5b50600436106100b35760003560e01c8063a22cb46511610071578063a22cb465146101b2578063d7d984ce146101ce578063e985e9c5146101ec578063f1e4d9241461021c578063f242432a14610238578063f7b3867414610254576100b3565b8062fdd58e146100b857806301ffc9a7146100e85780630e89341c146101185780632eb2c2d6146101485780634e1273f4146101645780635aa6e67514610194575b600080fd5b6100d260048036038101906100cd9190611c89565b610270565b6040516100df919061277d565b60405180910390f35b61010260048036038101906100fd9190611d9d565b610339565b60405161010f91906125a0565b60405180910390f35b610132600480360381019061012d9190611def565b61041b565b60405161013f91906125bb565b60405180910390f35b610162600480360381019061015d9190611ab0565b6104af565b005b61017e60048036038101906101799190611d31565b6108a5565b60405161018b9190612547565b60405180910390f35b61019c610a56565b6040516101a9919061246a565b60405180910390f35b6101cc60048036038101906101c79190611c4d565b610a7c565b005b6101d6610bfd565b6040516101e3919061277d565b60405180910390f35b61020660048036038101906102019190611a74565b610c03565b60405161021391906125a0565b60405180910390f35b61023660048036038101906102319190611b6f565b610c97565b005b610252600480360381019061024d9190611bbe565b610d3f565b005b61026e60048036038101906102699190611cc5565b611057565b005b60008073ffffffffffffffffffffffffffffffffffffffff168373ffffffffffffffffffffffffffffffffffffffff1614156102e1576040517f08c379a00000000000000000000000000000000000000000000000000000000081526004016102d89061261d565b60405180910390fd5b60008083815260200190815260200160002060008473ffffffffffffffffffffffffffffffffffffffff1673ffffffffffffffffffffffffffffffffffffffff16815260200190815260200160002054905092915050565b60007fd9b67a26000000000000000000000000000000000000000000000000000000007bffffffffffffffffffffffffffffffffffffffffffffffffffffffff1916827bffffffffffffffffffffffffffffffffffffffffffffffffffffffff1916148061040457507f0e89341c000000000000000000000000000000000000000000000000000000007bffffffffffffffffffffffffffffffffffffffffffffffffffffffff1916827bffffffffffffffffffffffffffffffffffffffffffffffffffffffff1916145b806104145750610413826111a4565b5b9050919050565b60606002805461042a90612a2b565b80601f016020809104026020016040519081016040528092919081815260200182805461045690612a2b565b80156104a35780601f10610478576101008083540402835291602001916104a3565b820191906000526020600020905b81548152906001019060200180831161048657829003601f168201915b50505050509050919050565b81518351146104f3576040517f08c379a00000000000000000000000000000000000000000000000000000000081526004016104ea9061273d565b60405180910390fd5b600073ffffffffffffffffffffffffffffffffffffffff168473ffffffffffffffffffffffffffffffffffffffff161415610563576040517f08c379a000000000000000000000000000000000000000000000000000000000815260040161055a9061267d565b60405180910390fd5b61056b61120e565b73ffffffffffffffffffffffffffffffffffffffff168573ffffffffffffffffffffffffffffffffffffffff1614806105b157506105b0856105ab61120e565b610c03565b5b6105f0576040517f08c379a00000000000000000000000000000000000000000000000000000000081526004016105e7906126bd565b60405180910390fd5b60006105fa61120e565b905061060a818787878787611216565b60005b8451811015610810576000858281518110610651577f4e487b7100000000000000000000000000000000000000000000000000000000600052603260045260246000fd5b602002602001015190506000858381518110610696577f4e487b7100000000000000000000000000000000000000000000000000000000600052603260045260246000fd5b60200260200101519050600080600084815260200190815260200160002060008b73ffffffffffffffffffffffffffffffffffffffff1673ffffffffffffffffffffffffffffffffffffffff16815260200190815260200160002054905081811015610737576040517f08c379a000000000000000000000000000000000000000000000000000000000815260040161072e906126dd565b60405180910390fd5b81816107439190612941565b60008085815260200190815260200160002060008c73ffffffffffffffffffffffffffffffffffffffff1673ffffffffffffffffffffffffffffffffffffffff168152602001908152602001600020819055508160008085815260200190815260200160002060008b73ffffffffffffffffffffffffffffffffffffffff1673ffffffffffffffffffffffffffffffffffffffff16815260200190815260200160002060008282546107f591906128eb565b925050819055505050508061080990612a5d565b905061060d565b508473ffffffffffffffffffffffffffffffffffffffff168673ffffffffffffffffffffffffffffffffffffffff168273ffffffffffffffffffffffffffffffffffffffff167f4a39dc06d4c0dbc64b70af90fd698a233a518aa5d07e595d983b8c0526c8f7fb8787604051610887929190612569565b60405180910390a461089d81878787878761121e565b505050505050565b606081518351146108eb576040517f08c379a00000000000000000000000000000000000000000000000000000000081526004016108e29061271d565b60405180910390fd5b6000835167ffffffffffffffff81111561092e577f4e487b7100000000000000000000000000000000000000000000000000000000600052604160045260246000fd5b60405190808252806020026020018201604052801561095c5781602001602082028036833780820191505090505b50905060005b8451811015610a4b576109f58582815181106109a7577f4e487b7100000000000000000000000000000000000000000000000000000000600052603260045260246000fd5b60200260200101518583815181106109e8577f4e487b7100000000000000000000000000000000000000000000000000000000600052603260045260246000fd5b6020026020010151610270565b828281518110610a2e577f4e487b7100000000000000000000000000000000000000000000000000000000600052603260045260246000fd5b60200260200101818152505080610a4490612a5d565b9050610962565b508091505092915050565b600360009054906101000a900473ffffffffffffffffffffffffffffffffffffffff1681565b8173ffffffffffffffffffffffffffffffffffffffff16610a9b61120e565b73ffffffffffffffffffffffffffffffffffffffff161415610af2576040517f08c379a0000000000000000000000000000000000000000000000000000000008152600401610ae9906126fd565b60405180910390fd5b8060016000610aff61120e565b73ffffffffffffffffffffffffffffffffffffffff1673ffffffffffffffffffffffffffffffffffffffff16815260200190815260200160002060008473ffffffffffffffffffffffffffffffffffffffff1673ffffffffffffffffffffffffffffffffffffffff16815260200190815260200160002060006101000a81548160ff0219169083151502179055508173ffffffffffffffffffffffffffffffffffffffff16610bac61120e565b73ffffffffffffffffffffffffffffffffffffffff167f17307eab39ab6107e8899845ad3d59bd9653f200f220920489ca2b5937696c3183604051610bf191906125a0565b60405180910390a35050565b60045481565b6000600160008473ffffffffffffffffffffffffffffffffffffffff1673ffffffffffffffffffffffffffffffffffffffff16815260200190815260200160002060008373ffffffffffffffffffffffffffffffffffffffff1673ffffffffffffffffffffffffffffffffffffffff16815260200190815260200160002060009054906101000a900460ff16905092915050565b600073ffffffffffffffffffffffffffffffffffffffff168273ffffffffffffffffffffffffffffffffffffffff161415610d07576040517f08c379a0000000000000000000000000000000000000000000000000000000008152600401610cfe9061269d565b60405180910390fd5b6001610d138483610270565b14610d1d57600080fd5b610d3a838383600160405180602001604052806000815250610d3f565b505050565b600073ffffffffffffffffffffffffffffffffffffffff168473ffffffffffffffffffffffffffffffffffffffff161415610daf576040517f08c379a0000000000000000000000000000000000000000000000000000000008152600401610da69061267d565b60405180910390fd5b610db761120e565b73ffffffffffffffffffffffffffffffffffffffff168573ffffffffffffffffffffffffffffffffffffffff161480610dfd5750610dfc85610df761120e565b610c03565b5b610e3c576040517f08c379a0000000000000000000000000000000000000000000000000000000008152600401610e339061263d565b60405180910390fd5b6000610e4661120e565b9050610e66818787610e57886113ee565b610e60886113ee565b87611216565b600080600086815260200190815260200160002060008873ffffffffffffffffffffffffffffffffffffffff1673ffffffffffffffffffffffffffffffffffffffff16815260200190815260200160002054905083811015610efd576040517f08c379a0000000000000000000000000000000000000000000000000000000008152600401610ef4906126dd565b60405180910390fd5b8381610f099190612941565b60008087815260200190815260200160002060008973ffffffffffffffffffffffffffffffffffffffff1673ffffffffffffffffffffffffffffffffffffffff168152602001908152602001600020819055508360008087815260200190815260200160002060008873ffffffffffffffffffffffffffffffffffffffff1673ffffffffffffffffffffffffffffffffffffffff1681526020019081526020016000206000828254610fbb91906128eb565b925050819055508573ffffffffffffffffffffffffffffffffffffffff168773ffffffffffffffffffffffffffffffffffffffff168373ffffffffffffffffffffffffffffffffffffffff167fc3d58168c5ae7397731d063d5bbf3d657854427343f4c083240f7aacaa2d0f628888604051611038929190612798565b60405180910390a461104e8288888888886114b4565b50505050505050565b600360009054906101000a900473ffffffffffffffffffffffffffffffffffffffff1673ffffffffffffffffffffffffffffffffffffffff163373ffffffffffffffffffffffffffffffffffffffff16146110e7576040517f08c379a00000000000000000000000000000000000000000000000000000000081526004016110de9061265d565b60405180910390fd5b600460008154809291906110fa90612a5d565b9190505550600082828080601f016020809104026020016040519081016040528093929190818152602001838380828437600081840152601f19601f820116905080830192505050505050509050600073ffffffffffffffffffffffffffffffffffffffff168573ffffffffffffffffffffffffffffffffffffffff16141561118f5761118a3385600184611684565b61119d565b61119c8585600184611684565b5b5050505050565b60007f01ffc9a7000000000000000000000000000000000000000000000000000000007bffffffffffffffffffffffffffffffffffffffffffffffffffffffff1916827bffffffffffffffffffffffffffffffffffffffffffffffffffffffff1916149050919050565b600033905090565b505050505050565b61123d8473ffffffffffffffffffffffffffffffffffffffff1661181a565b156113e6578373ffffffffffffffffffffffffffffffffffffffff1663bc197c8187878686866040518663ffffffff1660e01b8152600401611283959493929190612485565b602060405180830381600087803b15801561129d57600080fd5b505af19250505080156112ce57506040513d601f19601f820116820180604052508101906112cb9190611dc6565b60015b61135d576112da612b51565b806112e55750611322565b806040517f08c379a000000000000000000000000000000000000000000000000000000000815260040161131991906125bb565b60405180910390fd5b6040517f08c379a0000000000000000000000000000000000000000000000000000000008152600401611354906125dd565b60405180910390fd5b63bc197c8160e01b7bffffffffffffffffffffffffffffffffffffffffffffffffffffffff1916817bffffffffffffffffffffffffffffffffffffffffffffffffffffffff1916146113e4576040517f08c379a00000000000000000000000000000000000000000000000000000000081526004016113db906125fd565b60405180910390fd5b505b505050505050565b60606000600167ffffffffffffffff811115611433577f4e487b7100000000000000000000000000000000000000000000000000000000600052604160045260246000fd5b6040519080825280602002602001820160405280156114615781602001602082028036833780820191505090505b509050828160008151811061149f577f4e487b7100000000000000000000000000000000000000000000000000000000600052603260045260246000fd5b60200260200101818152505080915050919050565b6114d38473ffffffffffffffffffffffffffffffffffffffff1661181a565b1561167c578373ffffffffffffffffffffffffffffffffffffffff1663f23a6e6187878686866040518663ffffffff1660e01b81526004016115199594939291906124ed565b602060405180830381600087803b15801561153357600080fd5b505af192505050801561156457506040513d601f19601f820116820180604052508101906115619190611dc6565b60015b6115f357611570612b51565b8061157b57506115b8565b806040517f08c379a00000000000000000000000000000000000000000000000000000000081526004016115af91906125bb565b60405180910390fd5b6040517f08c379a00000000000000000000000000000000000000000000000000000000081526004016115ea906125dd565b60405180910390fd5b63f23a6e6160e01b7bffffffffffffffffffffffffffffffffffffffffffffffffffffffff1916817bffffffffffffffffffffffffffffffffffffffffffffffffffffffff19161461167a576040517f08c379a0000000000000000000000000000000000000000000000000000000008152600401611671906125fd565b60405180910390fd5b505b505050505050565b600073ffffffffffffffffffffffffffffffffffffffff168473ffffffffffffffffffffffffffffffffffffffff1614156116f4576040517f08c379a00000000000000000000000000000000000000000000000000000000081526004016116eb9061275d565b60405180910390fd5b60006116fe61120e565b905061171f81600087611710886113ee565b611719886113ee565b87611216565b8260008086815260200190815260200160002060008773ffffffffffffffffffffffffffffffffffffffff1673ffffffffffffffffffffffffffffffffffffffff168152602001908152602001600020600082825461177e91906128eb565b925050819055508473ffffffffffffffffffffffffffffffffffffffff16600073ffffffffffffffffffffffffffffffffffffffff168273ffffffffffffffffffffffffffffffffffffffff167fc3d58168c5ae7397731d063d5bbf3d657854427343f4c083240f7aacaa2d0f6287876040516117fc929190612798565b60405180910390a4611813816000878787876114b4565b5050505050565b600080823b905060008111915050919050565b600061184061183b846127f2565b6127c1565b9050808382526020820190508285602086028201111561185f57600080fd5b60005b8581101561188f57816118758882611943565b845260208401935060208301925050600181019050611862565b5050509392505050565b60006118ac6118a78461281e565b6127c1565b905080838252602082019050828560208602820111156118cb57600080fd5b60005b858110156118fb57816118e18882611a5f565b8452602084019350602083019250506001810190506118ce565b5050509392505050565b60006119186119138461284a565b6127c1565b90508281526020810184848401111561193057600080fd5b61193b8482856129e9565b509392505050565b60008135905061195281612c07565b92915050565b600082601f83011261196957600080fd5b813561197984826020860161182d565b91505092915050565b600082601f83011261199357600080fd5b81356119a3848260208601611899565b91505092915050565b6000813590506119bb81612c1e565b92915050565b6000813590506119d081612c35565b92915050565b6000815190506119e581612c35565b92915050565b60008083601f8401126119fd57600080fd5b8235905067ffffffffffffffff811115611a1657600080fd5b602083019150836001820283011115611a2e57600080fd5b9250929050565b600082601f830112611a4657600080fd5b8135611a56848260208601611905565b91505092915050565b600081359050611a6e81612c4c565b92915050565b60008060408385031215611a8757600080fd5b6000611a9585828601611943565b9250506020611aa685828601611943565b9150509250929050565b600080600080600060a08688031215611ac857600080fd5b6000611ad688828901611943565b9550506020611ae788828901611943565b945050604086013567ffffffffffffffff811115611b0457600080fd5b611b1088828901611982565b935050606086013567ffffffffffffffff811115611b2d57600080fd5b611b3988828901611982565b925050608086013567ffffffffffffffff811115611b5657600080fd5b611b6288828901611a35565b9150509295509295909350565b600080600060608486031215611b8457600080fd5b6000611b9286828701611943565b9350506020611ba386828701611943565b9250506040611bb486828701611a5f565b9150509250925092565b600080600080600060a08688031215611bd657600080fd5b6000611be488828901611943565b9550506020611bf588828901611943565b9450506040611c0688828901611a5f565b9350506060611c1788828901611a5f565b925050608086013567ffffffffffffffff811115611c3457600080fd5b611c4088828901611a35565b9150509295509295909350565b60008060408385031215611c6057600080fd5b6000611c6e85828601611943565b9250506020611c7f858286016119ac565b9150509250929050565b60008060408385031215611c9c57600080fd5b6000611caa85828601611943565b9250506020611cbb85828601611a5f565b9150509250929050565b60008060008060608587031215611cdb57600080fd5b6000611ce987828801611943565b9450506020611cfa87828801611a5f565b935050604085013567ffffffffffffffff811115611d1757600080fd5b611d23878288016119eb565b925092505092959194509250565b60008060408385031215611d4457600080fd5b600083013567ffffffffffffffff811115611d5e57600080fd5b611d6a85828601611958565b925050602083013567ffffffffffffffff811115611d8757600080fd5b611d9385828601611982565b9150509250929050565b600060208284031215611daf57600080fd5b6000611dbd848285016119c1565b91505092915050565b600060208284031215611dd857600080fd5b6000611de6848285016119d6565b91505092915050565b600060208284031215611e0157600080fd5b6000611e0f84828501611a5f565b91505092915050565b6000611e24838361244c565b60208301905092915050565b611e3981612975565b82525050565b6000611e4a8261288a565b611e5481856128b8565b9350611e5f8361287a565b8060005b83811015611e90578151611e778882611e18565b9750611e82836128ab565b925050600181019050611e63565b5085935050505092915050565b611ea681612987565b82525050565b6000611eb782612895565b611ec181856128c9565b9350611ed18185602086016129f8565b611eda81612b33565b840191505092915050565b6000611ef0826128a0565b611efa81856128da565b9350611f0a8185602086016129f8565b611f1381612b33565b840191505092915050565b6000611f2b6034836128da565b91507f455243313135353a207472616e7366657220746f206e6f6e204552433131353560008301527f526563656976657220696d706c656d656e7465720000000000000000000000006020830152604082019050919050565b6000611f916028836128da565b91507f455243313135353a204552433131353552656365697665722072656a6563746560008301527f6420746f6b656e730000000000000000000000000000000000000000000000006020830152604082019050919050565b6000611ff7602b836128da565b91507f455243313135353a2062616c616e636520717565727920666f7220746865207a60008301527f65726f20616464726573730000000000000000000000000000000000000000006020830152604082019050919050565b600061205d6029836128da565b91507f455243313135353a2063616c6c6572206973206e6f74206f776e6572206e6f7260008301527f20617070726f76656400000000000000000000000000000000000000000000006020830152604082019050919050565b60006120c36032836128da565b91507f4f6e6c7920746865206f776e6572206f66207468697320636f6e74726163742060008301527f63616e2063726561746520646f207468617400000000000000000000000000006020830152604082019050919050565b60006121296025836128da565b91507f455243313135353a207472616e7366657220746f20746865207a65726f20616460008301527f64726573730000000000000000000000000000000000000000000000000000006020830152604082019050919050565b600061218f6031836128da565b91507f596f752063616e2774207472616e7366657220796f757220746f6b656e20746f60008301527f20746865207a65726f20616464726573730000000000000000000000000000006020830152604082019050919050565b60006121f56032836128da565b91507f455243313135353a207472616e736665722063616c6c6572206973206e6f742060008301527f6f776e6572206e6f7220617070726f76656400000000000000000000000000006020830152604082019050919050565b600061225b602a836128da565b91507f455243313135353a20696e73756666696369656e742062616c616e636520666f60008301527f72207472616e73666572000000000000000000000000000000000000000000006020830152604082019050919050565b60006122c16029836128da565b91507f455243313135353a2073657474696e6720617070726f76616c2073746174757360008301527f20666f722073656c6600000000000000000000000000000000000000000000006020830152604082019050919050565b60006123276029836128da565b91507f455243313135353a206163636f756e747320616e6420696473206c656e67746860008301527f206d69736d6174636800000000000000000000000000000000000000000000006020830152604082019050919050565b600061238d6028836128da565b91507f455243313135353a2069647320616e6420616d6f756e7473206c656e6774682060008301527f6d69736d617463680000000000000000000000000000000000000000000000006020830152604082019050919050565b60006123f36021836128da565b91507f455243313135353a206d696e7420746f20746865207a65726f2061646472657360008301527f73000000000000000000000000000000000000000000000000000000000000006020830152604082019050919050565b612455816129df565b82525050565b612464816129df565b82525050565b600060208201905061247f6000830184611e30565b92915050565b600060a08201905061249a6000830188611e30565b6124a76020830187611e30565b81810360408301526124b98186611e3f565b905081810360608301526124cd8185611e3f565b905081810360808301526124e18184611eac565b90509695505050505050565b600060a0820190506125026000830188611e30565b61250f6020830187611e30565b61251c604083018661245b565b612529606083018561245b565b818103608083015261253b8184611eac565b90509695505050505050565b600060208201905081810360008301526125618184611e3f565b905092915050565b600060408201905081810360008301526125838185611e3f565b905081810360208301526125978184611e3f565b90509392505050565b60006020820190506125b56000830184611e9d565b92915050565b600060208201905081810360008301526125d58184611ee5565b905092915050565b600060208201905081810360008301526125f681611f1e565b9050919050565b6000602082019050818103600083015261261681611f84565b9050919050565b6000602082019050818103600083015261263681611fea565b9050919050565b6000602082019050818103600083015261265681612050565b9050919050565b60006020820190508181036000830152612676816120b6565b9050919050565b600060208201905081810360008301526126968161211c565b9050919050565b600060208201905081810360008301526126b681612182565b9050919050565b600060208201905081810360008301526126d6816121e8565b9050919050565b600060208201905081810360008301526126f68161224e565b9050919050565b60006020820190508181036000830152612716816122b4565b9050919050565b600060208201905081810360008301526127368161231a565b9050919050565b6000602082019050818103600083015261275681612380565b9050919050565b60006020820190508181036000830152612776816123e6565b9050919050565b6000602082019050612792600083018461245b565b92915050565b60006040820190506127ad600083018561245b565b6127ba602083018461245b565b9392505050565b6000604051905081810181811067ffffffffffffffff821117156127e8576127e7612b04565b5b8060405250919050565b600067ffffffffffffffff82111561280d5761280c612b04565b5b602082029050602081019050919050565b600067ffffffffffffffff82111561283957612838612b04565b5b602082029050602081019050919050565b600067ffffffffffffffff82111561286557612864612b04565b5b601f19601f8301169050602081019050919050565b6000819050602082019050919050565b600081519050919050565b600081519050919050565b600081519050919050565b6000602082019050919050565b600082825260208201905092915050565b600082825260208201905092915050565b600082825260208201905092915050565b60006128f6826129df565b9150612901836129df565b9250827fffffffffffffffffffffffffffffffffffffffffffffffffffffffffffffffff0382111561293657612935612aa6565b5b828201905092915050565b600061294c826129df565b9150612957836129df565b92508282101561296a57612969612aa6565b5b828203905092915050565b6000612980826129bf565b9050919050565b60008115159050919050565b60007fffffffff0000000000000000000000000000000000000000000000000000000082169050919050565b600073ffffffffffffffffffffffffffffffffffffffff82169050919050565b6000819050919050565b82818337600083830152505050565b60005b83811015612a165780820151818401526020810190506129fb565b83811115612a25576000848401525b50505050565b60006002820490506001821680612a4357607f821691505b60208210811415612a5757612a56612ad5565b5b50919050565b6000612a68826129df565b91507fffffffffffffffffffffffffffffffffffffffffffffffffffffffffffffffff821415612a9b57612a9a612aa6565b5b600182019050919050565b7f4e487b7100000000000000000000000000000000000000000000000000000000600052601160045260246000fd5b7f4e487b7100000000000000000000000000000000000000000000000000000000600052602260045260246000fd5b7f4e487b7100000000000000000000000000000000000000000000000000000000600052604160045260246000fd5b6000601f19601f8301169050919050565b60008160e01c9050919050565b600060443d1015612b6157612c04565b60046000803e612b72600051612b44565b6308c379a08114612b835750612c04565b60405160043d036004823e80513d602482011167ffffffffffffffff82111715612baf57505050612c04565b808201805167ffffffffffffffff811115612bce575050505050612c04565b8060208301013d8501811115612be957505050505050612c04565b612bf282612b33565b60208401016040528296505050505050505b90565b612c1081612975565b8114612c1b57600080fd5b50565b612c2781612987565b8114612c3257600080fd5b50565b612c3e81612993565b8114612c4957600080fd5b50565b612c55816129df565b8114612c6057600080fd5b5056fea2646970667358221220723ecb37635ec2db86612dbe868cfe6ee0601eed6db612fc347c7b1e7ba01fdc64736f6c63430008000033",
  "immutableReferences": {},
  "source": "pragma solidity ^0.8.0;\r\n\r\nimport \"@openzeppelin/contracts/token/ERC1155/ERC1155.sol\";\r\n\r\n\r\ncontract Kyra is ERC1155{\r\n    address public governance;\r\n    uint256 public IdCount;\r\n    modifier onlyGovernance(){\r\n        require(msg.sender == governance, \"Only the owner of this contract can create do that\");\r\n        _;\r\n    }\r\n\r\n    constructor() public ERC1155(\"\"){\r\n        governance = msg.sender;\r\n        IdCount = 0;\r\n    }\r\n\r\n\r\n\r\n    function newToken(address owner, uint256 id, bytes calldata data)external onlyGovernance{\r\n        IdCount++;\r\n\r\n        bytes memory dataByte = bytes(data);\r\n\r\n        if(owner == address(0)){  //test if owner is empty; give the ownership to  the governance\r\n            _mint(msg.sender, id, 1, dataByte);\r\n        }\r\n        else{\r\n            _mint(owner, id, 1, dataByte);\r\n        }\r\n    }\r\n\r\n    //Rajouter l'apporbation du owner du contract setApprovalForAll\r\n\r\n    function SafeTransfer(address _ActualOwnerOfToken, address _to, uint256 _IdOfToken) public{\r\n\r\n        require(_to !=address(0), \"You can't transfer your token to the zero address\");\r\n\r\n\r\n        require(\r\n            balanceOf(_ActualOwnerOfToken, _IdOfToken) == 1\r\n        );\r\n\r\n        safeTransferFrom(_ActualOwnerOfToken, _to, _IdOfToken, 1, \"\");\r\n    }\r\n\r\n}\r\n",
  "sourcePath": "C:/Users/FourbeurFourmi/Desktop/blockchain/erc1155-final/contracts/Kyra.sol",
  "compiler": {
    "name": "solc",
    "version": "0.8.0+commit.c7dfd78e.Emscripten.clang"
  },
  "schemaVersion": "3.3.4",
  "updatedAt": "2021-03-28T18:23:32.570Z",
  "networkType": "ethereum",
  "devdoc": {
    "kind": "dev",
    "methods": {
      "balanceOf(address,uint256)": {
        "details": "See {IERC1155-balanceOf}. Requirements: - `account` cannot be the zero address."
      },
      "balanceOfBatch(address[],uint256[])": {
        "details": "See {IERC1155-balanceOfBatch}. Requirements: - `accounts` and `ids` must have the same length."
      },
      "isApprovedForAll(address,address)": {
        "details": "See {IERC1155-isApprovedForAll}."
      },
      "safeBatchTransferFrom(address,address,uint256[],uint256[],bytes)": {
        "details": "See {IERC1155-safeBatchTransferFrom}."
      },
      "safeTransferFrom(address,address,uint256,uint256,bytes)": {
        "details": "See {IERC1155-safeTransferFrom}."
      },
      "setApprovalForAll(address,bool)": {
        "details": "See {IERC1155-setApprovalForAll}."
      },
      "supportsInterface(bytes4)": {
        "details": "See {IERC165-supportsInterface}."
      },
      "uri(uint256)": {
        "details": "See {IERC1155MetadataURI-uri}. This implementation returns the same URI for *all* token types. It relies on the token type ID substitution mechanism https://eips.ethereum.org/EIPS/eip-1155#metadata[defined in the EIP]. Clients calling this function must replace the `\\{id\\}` substring with the actual token type ID."
      }
    },
    "version": 1
  },
  "userdoc": {
    "kind": "user",
    "methods": {},
    "version": 1
  }
}